:04000000B5EF3FF029
:107F6A000001D0EF3FF008D0100E056E940EE82EF7
:107F7A00FED7052EFCD700D00106000E025A035A7E
:107F8A00045A0128F1E10228EFE10328EDE104286F
:107F9A00D8B41200E9D70F0EC16E000E956E010E0D
:107FAA008C6E000E066E060E066401D010D0020E0C
:107FBA008C02F3508C6EF40E016E010E026E000EEE
:107FCA00036E000E046EB8EC3FF0062AECD7000EE2
:107FDA00066E060E066401D0E4D7D8908C32F40EF1
:107FEA00016E010E026E000E036E000E046EB8ECF6
:067FFA003FF0062AEED75D
:020000040020DA
:08000000FFFFFFFFFFFFFFFF00
:020000040030CA
:0E000000200E111CFF8080FF0FC00FE00F408C
:00000001FF
